{
  "contractName": "NFTMarket",
  "abi": [
    {
      "inputs": [],
      "stateMutability": "nonpayable",
      "type": "constructor"
    },
    {
      "anonymous": false,
      "inputs": [
        {
          "indexed": true,
          "internalType": "uint256",
          "name": "itemId",
          "type": "uint256"
        },
        {
          "indexed": true,
          "internalType": "address",
          "name": "nftContract",
          "type": "address"
        },
        {
          "indexed": true,
          "internalType": "uint256",
          "name": "tokenId",
          "type": "uint256"
        },
        {
          "indexed": false,
          "internalType": "address",
          "name": "seller",
          "type": "address"
        },
        {
          "indexed": false,
          "internalType": "address",
          "name": "owner",
          "type": "address"
        },
        {
          "indexed": false,
          "internalType": "bool",
          "name": "sold",
          "type": "bool"
        },
        {
          "indexed": false,
          "internalType": "uint256",
          "name": "price",
          "type": "uint256"
        }
      ],
      "name": "MarketItemCreated",
      "type": "event"
    },
    {
      "inputs": [],
      "name": "getListingPrice",
      "outputs": [
        {
          "internalType": "uint256",
          "name": "",
          "type": "uint256"
        }
      ],
      "stateMutability": "view",
      "type": "function",
      "constant": true
    },
    {
      "inputs": [
        {
          "internalType": "address",
          "name": "nftContract",
          "type": "address"
        },
        {
          "internalType": "uint256",
          "name": "tokenId",
          "type": "uint256"
        }
      ],
      "name": "updateItemSale",
      "outputs": [],
      "stateMutability": "payable",
      "type": "function",
      "payable": true
    },
    {
      "inputs": [
        {
          "internalType": "address",
          "name": "nftContract",
          "type": "address"
        },
        {
          "internalType": "uint256",
          "name": "tokenId",
          "type": "uint256"
        }
      ],
      "name": "createMarketItem",
      "outputs": [],
      "stateMutability": "payable",
      "type": "function",
      "payable": true
    },
    {
      "inputs": [
        {
          "internalType": "address",
          "name": "nftContract",
          "type": "address"
        },
        {
          "internalType": "uint256",
          "name": "itemId",
          "type": "uint256"
        }
      ],
      "name": "createMarketSale",
      "outputs": [],
      "stateMutability": "payable",
      "type": "function",
      "payable": true
    },
    {
      "inputs": [],
      "name": "fetchMarketItems",
      "outputs": [
        {
          "components": [
            {
              "internalType": "uint256",
              "name": "itemId",
              "type": "uint256"
            },
            {
              "internalType": "address",
              "name": "nftContract",
              "type": "address"
            },
            {
              "internalType": "uint256",
              "name": "tokenId",
              "type": "uint256"
            },
            {
              "internalType": "address payable",
              "name": "seller",
              "type": "address"
            },
            {
              "internalType": "address payable",
              "name": "owner",
              "type": "address"
            },
            {
              "internalType": "bool",
              "name": "sold",
              "type": "bool"
            },
            {
              "internalType": "uint256",
              "name": "price",
              "type": "uint256"
            }
          ],
          "internalType": "struct NFTMarket.MarketItem[]",
          "name": "",
          "type": "tuple[]"
        }
      ],
      "stateMutability": "view",
      "type": "function",
      "constant": true
    },
    {
      "inputs": [],
      "name": "fetchMyNFTs",
      "outputs": [
        {
          "components": [
            {
              "internalType": "uint256",
              "name": "itemId",
              "type": "uint256"
            },
            {
              "internalType": "address",
              "name": "nftContract",
              "type": "address"
            },
            {
              "internalType": "uint256",
              "name": "tokenId",
              "type": "uint256"
            },
            {
              "internalType": "address payable",
              "name": "seller",
              "type": "address"
            },
            {
              "internalType": "address payable",
              "name": "owner",
              "type": "address"
            },
            {
              "internalType": "bool",
              "name": "sold",
              "type": "bool"
            },
            {
              "internalType": "uint256",
              "name": "price",
              "type": "uint256"
            }
          ],
          "internalType": "struct NFTMarket.MarketItem[]",
          "name": "",
          "type": "tuple[]"
        }
      ],
      "stateMutability": "view",
      "type": "function",
      "constant": true
    },
    {
      "inputs": [],
      "name": "fetchItemsCreated",
      "outputs": [
        {
          "components": [
            {
              "internalType": "uint256",
              "name": "itemId",
              "type": "uint256"
            },
            {
              "internalType": "address",
              "name": "nftContract",
              "type": "address"
            },
            {
              "internalType": "uint256",
              "name": "tokenId",
              "type": "uint256"
            },
            {
              "internalType": "address payable",
              "name": "seller",
              "type": "address"
            },
            {
              "internalType": "address payable",
              "name": "owner",
              "type": "address"
            },
            {
              "internalType": "bool",
              "name": "sold",
              "type": "bool"
            },
            {
              "internalType": "uint256",
              "name": "price",
              "type": "uint256"
            }
          ],
          "internalType": "struct NFTMarket.MarketItem[]",
          "name": "",
          "type": "tuple[]"
        }
      ],
      "stateMutability": "view",
      "type": "function",
      "constant": true
    }
  ],
  "bytecode": "0x60806040526658d15e1762800060045534801561001b57600080fd5b50600160008190555033600360006101000a81548173ffffffffffffffffffffffffffffffffffffffff021916908373ffffffffffffffffffffffffffffffffffffffff160217905550611773806100746000396000f3fe6080604052600436106100705760003560e01c8063281b8ca11161004e578063281b8ca1146100f6578063c23b139e14610112578063dd5f85181461012e578063f064c32e1461014a57610070565b80630f08efe01461007557806312e85585146100a0578063202e3740146100cb575b600080fd5b34801561008157600080fd5b5061008a610175565b60405161009791906113dd565b60405180910390f35b3480156100ac57600080fd5b506100b561043f565b6040516100c2919061140e565b60405180910390f35b3480156100d757600080fd5b506100e0610449565b6040516100ed91906113dd565b60405180910390f35b610110600480360381019061010b9190611486565b610797565b005b61012c60048036038101906101279190611486565b6109cd565b005b61014860048036038101906101439190611486565b610bab565b005b34801561015657600080fd5b5061015f610e17565b60405161016c91906113dd565b60405180910390f35b606060006101836001611165565b905060006101916002611165565b61019b6001611165565b6101a591906114f5565b90506000808267ffffffffffffffff8111156101c4576101c3611529565b5b6040519080825280602002602001820160405280156101fd57816020015b6101ea611189565b8152602001906001900390816101e25790505b50905060005b8481101561043457600073ffffffffffffffffffffffffffffffffffffffff16600560006001846102349190611558565b815260200190815260200160002060040160009054906101000a900473ffffffffffffffffffffffffffffffffffffffff1673ffffffffffffffffffffffffffffffffffffffff1614156104215760006001826102919190611558565b90506000600560008381526020019081526020016000209050806040518060e0016040529081600082015481526020016001820160009054906101000a900473ffffffffffffffffffffffffffffffffffffffff1673ffffffffffffffffffffffffffffffffffffffff1673ffffffffffffffffffffffffffffffffffffffff168152602001600282015481526020016003820160009054906101000a900473ffffffffffffffffffffffffffffffffffffffff1673ffffffffffffffffffffffffffffffffffffffff1673ffffffffffffffffffffffffffffffffffffffff1681526020016004820160009054906101000a900473ffffffffffffffffffffffffffffffffffffffff1673ffffffffffffffffffffffffffffffffffffffff1673ffffffffffffffffffffffffffffffffffffffff1681526020016004820160149054906101000a900460ff16151515158152602001600582015481525050848681518110610404576104036115ae565b5b602002602001018190525060018561041c9190611558565b945050505b808061042c906115dd565b915050610203565b508094505050505090565b6000600454905090565b606060006104576001611165565b905060008060005b83811015610500573373ffffffffffffffffffffffffffffffffffffffff166005600060018461048f9190611558565b815260200190815260200160002060040160009054906101000a900473ffffffffffffffffffffffffffffffffffffffff1673ffffffffffffffffffffffffffffffffffffffff1614156104ed576001836104ea9190611558565b92505b80806104f8906115dd565b91505061045f565b5060008267ffffffffffffffff81111561051d5761051c611529565b5b60405190808252806020026020018201604052801561055657816020015b610543611189565b81526020019060019003908161053b5790505b50905060005b8481101561078c573373ffffffffffffffffffffffffffffffffffffffff166005600060018461058c9190611558565b815260200190815260200160002060040160009054906101000a900473ffffffffffffffffffffffffffffffffffffffff1673ffffffffffffffffffffffffffffffffffffffff1614156107795760006001826105e99190611558565b90506000600560008381526020019081526020016000209050806040518060e0016040529081600082015481526020016001820160009054906101000a900473ffffffffffffffffffffffffffffffffffffffff1673ffffffffffffffffffffffffffffffffffffffff1673ffffffffffffffffffffffffffffffffffffffff168152602001600282015481526020016003820160009054906101000a900473ffffffffffffffffffffffffffffffffffffffff1673ffffffffffffffffffffffffffffffffffffffff1673ffffffffffffffffffffffffffffffffffffffff1681526020016004820160009054906101000a900473ffffffffffffffffffffffffffffffffffffffff1673ffffffffffffffffffffffffffffffffffffffff1673ffffffffffffffffffffffffffffffffffffffff1681526020016004820160149054906101000a900460ff1615151515815260200160058201548152505084868151811061075c5761075b6115ae565b5b60200260200101819052506001856107749190611558565b945050505b8080610784906115dd565b91505061055c565b508094505050505090565b600260005414156107dd576040517f08c379a00000000000000000000000000000000000000000000000000000000081526004016107d490611683565b60405180910390fd5b600260008190555060006107f16001611165565b905060005b81811015610950573373ffffffffffffffffffffffffffffffffffffffff16600560006001846108269190611558565b815260200190815260200160002060040160009054906101000a900473ffffffffffffffffffffffffffffffffffffffff1673ffffffffffffffffffffffffffffffffffffffff16141561093d5782600560006001846108869190611558565b815260200190815260200160002060020154141561093c576001600560006001846108b19190611558565b815260200190815260200160002060040160146101000a81548160ff0219169083151502179055506000600560006001846108ec9190611558565b815260200190815260200160002060040160006101000a81548173ffffffffffffffffffffffffffffffffffffffff021916908373ffffffffffffffffffffffffffffffffffffffff1602179055505b5b8080610948906115dd565b9150506107f6565b508273ffffffffffffffffffffffffffffffffffffffff166323b872dd3330856040518463ffffffff1660e01b815260040161098e939291906116b2565b600060405180830381600087803b1580156109a857600080fd5b505af11580156109bc573d6000803e3d6000fd5b505050505060016000819055505050565b60026000541415610a13576040517f08c379a0000000000000000000000000000000000000000000000000000000008152600401610a0a90611683565b60405180910390fd5b60026000819055506000600560008381526020019081526020016000206002015490508273ffffffffffffffffffffffffffffffffffffffff166323b872dd3033846040518463ffffffff1660e01b8152600401610a73939291906116b2565b600060405180830381600087803b158015610a8d57600080fd5b505af1158015610aa1573d6000803e3d6000fd5b50505050336005600084815260200190815260200160002060040160006101000a81548173ffffffffffffffffffffffffffffffffffffffff021916908373ffffffffffffffffffffffffffffffffffffffff16021790555060016005600084815260200190815260200160002060040160146101000a81548160ff021916908315150217905550610b336002611173565b600360009054906101000a900473ffffffffffffffffffffffffffffffffffffffff1673ffffffffffffffffffffffffffffffffffffffff166108fc6004549081150290604051600060405180830381858888f19350505050158015610b9d573d6000803e3d6000fd5b505060016000819055505050565b60026000541415610bf1576040517f08c379a0000000000000000000000000000000000000000000000000000000008152600401610be890611683565b60405180910390fd5b6002600081905550610c036001611173565b6000610c0f6001611165565b90506040518060e001604052808281526020018473ffffffffffffffffffffffffffffffffffffffff1681526020018381526020013373ffffffffffffffffffffffffffffffffffffffff1681526020013373ffffffffffffffffffffffffffffffffffffffff1681526020016000151581526020016000815250600560008381526020019081526020016000206000820151816000015560208201518160010160006101000a81548173ffffffffffffffffffffffffffffffffffffffff021916908373ffffffffffffffffffffffffffffffffffffffff1602179055506040820151816002015560608201518160030160006101000a81548173ffffffffffffffffffffffffffffffffffffffff021916908373ffffffffffffffffffffffffffffffffffffffff16021790555060808201518160040160006101000a81548173ffffffffffffffffffffffffffffffffffffffff021916908373ffffffffffffffffffffffffffffffffffffffff16021790555060a08201518160040160146101000a81548160ff02191690831515021790555060c08201518160050155905050818373ffffffffffffffffffffffffffffffffffffffff16827f039f9d68caeb6e160b5f27a319b40ae773c09852ae2f80b9eed73229633ce28b3333600080604051610e0294939291906116f8565b60405180910390a45060016000819055505050565b60606000610e256001611165565b905060008060005b83811015610ece573373ffffffffffffffffffffffffffffffffffffffff1660056000600184610e5d9190611558565b815260200190815260200160002060030160009054906101000a900473ffffffffffffffffffffffffffffffffffffffff1673ffffffffffffffffffffffffffffffffffffffff161415610ebb57600183610eb89190611558565b92505b8080610ec6906115dd565b915050610e2d565b5060008267ffffffffffffffff811115610eeb57610eea611529565b5b604051908082528060200260200182016040528015610f2457816020015b610f11611189565b815260200190600190039081610f095790505b50905060005b8481101561115a573373ffffffffffffffffffffffffffffffffffffffff1660056000600184610f5a9190611558565b815260200190815260200160002060030160009054906101000a900473ffffffffffffffffffffffffffffffffffffffff1673ffffffffffffffffffffffffffffffffffffffff161415611147576000600182610fb79190611558565b90506000600560008381526020019081526020016000209050806040518060e0016040529081600082015481526020016001820160009054906101000a900473ffffffffffffffffffffffffffffffffffffffff1673ffffffffffffffffffffffffffffffffffffffff1673ffffffffffffffffffffffffffffffffffffffff168152602001600282015481526020016003820160009054906101000a900473ffffffffffffffffffffffffffffffffffffffff1673ffffffffffffffffffffffffffffffffffffffff1673ffffffffffffffffffffffffffffffffffffffff1681526020016004820160009054906101000a900473ffffffffffffffffffffffffffffffffffffffff1673ffffffffffffffffffffffffffffffffffffffff1673ffffffffffffffffffffffffffffffffffffffff1681526020016004820160149054906101000a900460ff1615151515815260200160058201548152505084868151811061112a576111296115ae565b5b60200260200101819052506001856111429190611558565b945050505b8080611152906115dd565b915050610f2a565b508094505050505090565b600081600001549050919050565b6001816000016000828254019250508190555050565b6040518060e0016040528060008152602001600073ffffffffffffffffffffffffffffffffffffffff16815260200160008152602001600073ffffffffffffffffffffffffffffffffffffffff168152602001600073ffffffffffffffffffffffffffffffffffffffff168152602001600015158152602001600081525090565b600081519050919050565b600082825260208201905092915050565b6000819050602082019050919050565b6000819050919050565b61124981611236565b82525050565b600073ffffffffffffffffffffffffffffffffffffffff82169050919050565b600061127a8261124f565b9050919050565b61128a8161126f565b82525050565b600061129b8261124f565b9050919050565b6112ab81611290565b82525050565b60008115159050919050565b6112c6816112b1565b82525050565b60e0820160008201516112e26000850182611240565b5060208201516112f56020850182611281565b5060408201516113086040850182611240565b50606082015161131b60608501826112a2565b50608082015161132e60808501826112a2565b5060a082015161134160a08501826112bd565b5060c082015161135460c0850182611240565b50505050565b600061136683836112cc565b60e08301905092915050565b6000602082019050919050565b600061138a8261120a565b6113948185611215565b935061139f83611226565b8060005b838110156113d05781516113b7888261135a565b97506113c283611372565b9250506001810190506113a3565b5085935050505092915050565b600060208201905081810360008301526113f7818461137f565b905092915050565b61140881611236565b82525050565b600060208201905061142360008301846113ff565b92915050565b600080fd5b6114378161126f565b811461144257600080fd5b50565b6000813590506114548161142e565b92915050565b61146381611236565b811461146e57600080fd5b50565b6000813590506114808161145a565b92915050565b6000806040838503121561149d5761149c611429565b5b60006114ab85828601611445565b92505060206114bc85828601611471565b9150509250929050565b7f4e487b7100000000000000000000000000000000000000000000000000000000600052601160045260246000fd5b600061150082611236565b915061150b83611236565b92508282101561151e5761151d6114c6565b5b828203905092915050565b7f4e487b7100000000000000000000000000000000000000000000000000000000600052604160045260246000fd5b600061156382611236565b915061156e83611236565b9250827fffffffffffffffffffffffffffffffffffffffffffffffffffffffffffffffff038211156115a3576115a26114c6565b5b828201905092915050565b7f4e487b7100000000000000000000000000000000000000000000000000000000600052603260045260246000fd5b60006115e882611236565b91507fffffffffffffffffffffffffffffffffffffffffffffffffffffffffffffffff82141561161b5761161a6114c6565b5b600182019050919050565b600082825260208201905092915050565b7f5265656e7472616e637947756172643a207265656e7472616e742063616c6c00600082015250565b600061166d601f83611626565b915061167882611637565b602082019050919050565b6000602082019050818103600083015261169c81611660565b9050919050565b6116ac8161126f565b82525050565b60006060820190506116c760008301866116a3565b6116d460208301856116a3565b6116e160408301846113ff565b949350505050565b6116f2816112b1565b82525050565b600060808201905061170d60008301876116a3565b61171a60208301866116a3565b61172760408301856116e9565b61173460608301846113ff565b9594505050505056fea2646970667358221220fb53483c27d19b81862257dd2f229499c2dd136c39b4f9e543297a2d75e1c11564736f6c63430008090033",
  "immutableReferences": {},
  "source": "// contracts/Market.sol\n// SPDX-License-Identifier: MIT OR Apache-2.0\npragma solidity ^0.8.3;\n\nimport \"@openzeppelin/contracts/utils/Counters.sol\";\nimport \"@openzeppelin/contracts/security/ReentrancyGuard.sol\";\nimport \"@openzeppelin/contracts/token/ERC721/ERC721.sol\";\n\ncontract NFTMarket is ReentrancyGuard {\n    using Counters for Counters.Counter;\n    Counters.Counter private _itemIds;\n    Counters.Counter private _itemsSold;\n\n    address payable owner;\n    uint256 listingPrice = 0.025 ether;\n\n    constructor() {\n        owner = payable(msg.sender);\n    }\n\n    struct MarketItem {\n        uint256 itemId;\n        address nftContract;\n        uint256 tokenId;\n        address payable seller;\n        address payable owner;\n        bool sold;\n        uint256 price;\n    }\n\n    mapping(uint256 => MarketItem) private idToMarketItem;\n\n    event MarketItemCreated(\n        uint256 indexed itemId,\n        address indexed nftContract,\n        uint256 indexed tokenId,\n        address seller,\n        address owner,\n        bool sold,\n        uint256 price\n    );\n\n    /* Returns the listing price of the contract */\n    function getListingPrice() public view returns (uint256) {\n        return listingPrice;\n    }\n\n    /* Places an item for sale on the marketplace */\n    function updateItemSale(address nftContract, uint256 tokenId)\n        public\n        payable\n        nonReentrant\n    {\n        uint256 totalItemCount = _itemIds.current();\n\n        for (uint256 i = 0; i < totalItemCount; i++) {\n            if (idToMarketItem[i + 1].owner == msg.sender) {\n                if (idToMarketItem[i + 1].tokenId == tokenId) {\n                    idToMarketItem[i + 1].sold = true;\n                    idToMarketItem[i + 1].owner = payable(address(0));\n                }\n            }\n        }\n        IERC721(nftContract).transferFrom(msg.sender, address(this), tokenId);\n    }\n\n    function createMarketItem(address nftContract, uint256 tokenId)\n        public\n        payable\n        nonReentrant\n    {\n        _itemIds.increment();\n        uint256 itemId = _itemIds.current();\n\n        idToMarketItem[itemId] = MarketItem(\n            itemId,\n            nftContract,\n            tokenId,\n            payable(msg.sender),\n            payable(msg.sender),\n            false,\n            uint256(0)\n        );\n\n        // IERC721(nftContract).transferFrom(msg.sender, address(this), tokenId);\n\n        emit MarketItemCreated(\n            itemId,\n            nftContract,\n            tokenId,\n            msg.sender,\n            msg.sender,\n            false,\n            uint256(0)\n        );\n    }\n\n    /* Creates the sale of a marketplace item */\n    /* Transfers ownership of the item, as well as funds between parties */\n    function createMarketSale(address nftContract, uint256 itemId)\n        public\n        payable\n        nonReentrant\n    {\n        uint256 tokenId = idToMarketItem[itemId].tokenId;\n\n        IERC721(nftContract).transferFrom(address(this), msg.sender, tokenId);\n        idToMarketItem[itemId].owner = payable(msg.sender);\n        idToMarketItem[itemId].sold = true;\n        _itemsSold.increment();\n        payable(owner).transfer(listingPrice);\n    }\n\n    /* Returns all unsold market items */\n    function fetchMarketItems() public view returns (MarketItem[] memory) {\n        uint256 itemCount = _itemIds.current();\n        uint256 unsoldItemCount = _itemIds.current() - _itemsSold.current();\n        uint256 currentIndex = 0;\n\n        MarketItem[] memory items = new MarketItem[](unsoldItemCount);\n        for (uint256 i = 0; i < itemCount; i++) {\n            if (idToMarketItem[i + 1].owner == address(0)) {\n                uint256 currentId = i + 1;\n                MarketItem storage currentItem = idToMarketItem[currentId];\n                items[currentIndex] = currentItem;\n                currentIndex += 1;\n            }\n        }\n        return items;\n    }\n\n    // /* Returns only items that a user has purchased */\n    function fetchMyNFTs() public view returns (MarketItem[] memory) {\n        uint256 totalItemCount = _itemIds.current();\n        uint256 itemCount = 0;\n        uint256 currentIndex = 0;\n\n        for (uint256 i = 0; i < totalItemCount; i++) {\n            if (idToMarketItem[i + 1].owner == msg.sender) {\n                itemCount += 1;\n            }\n        }\n\n        MarketItem[] memory items = new MarketItem[](itemCount);\n        for (uint256 i = 0; i < totalItemCount; i++) {\n            if (idToMarketItem[i + 1].owner == msg.sender) {\n                uint256 currentId = i + 1;\n                MarketItem storage currentItem = idToMarketItem[currentId];\n                items[currentIndex] = currentItem;\n                currentIndex += 1;\n            }\n        }\n        return items;\n    }\n\n    /* Returns only items a user has created */\n    function fetchItemsCreated() public view returns (MarketItem[] memory) {\n        uint256 totalItemCount = _itemIds.current();\n        uint256 itemCount = 0;\n        uint256 currentIndex = 0;\n\n        for (uint256 i = 0; i < totalItemCount; i++) {\n            if (idToMarketItem[i + 1].seller == msg.sender) {\n                itemCount += 1;\n            }\n        }\n\n        MarketItem[] memory items = new MarketItem[](itemCount);\n        for (uint256 i = 0; i < totalItemCount; i++) {\n            if (idToMarketItem[i + 1].seller == msg.sender) {\n                uint256 currentId = i + 1;\n                MarketItem storage currentItem = idToMarketItem[currentId];\n                items[currentIndex] = currentItem;\n                currentIndex += 1;\n            }\n        }\n        return items;\n    }\n}\n",
  "sourcePath": "/Users/sakshamgupta/Desktop/nfprestart/contracts/Market.sol",
  "compiler": {
    "name": "solc",
    "version": "0.8.9+commit.e5eed63a.Emscripten.clang"
  },
  "schemaVersion": "3.4.5",
  "updatedAt": "2022-02-22T19:29:45.781Z",
  "networkType": "ethereum",
  "devdoc": {
    "kind": "dev",
    "methods": {},
    "version": 1
  },
  "userdoc": {
    "kind": "user",
    "methods": {},
    "version": 1
  }
}