{
  "contractName": "Panda",
  "abi": [
    {
      "inputs": [],
      "stateMutability": "nonpayable",
      "type": "constructor"
    },
    {
      "anonymous": false,
      "inputs": [
        {
          "indexed": true,
          "internalType": "address",
          "name": "owner",
          "type": "address"
        },
        {
          "indexed": true,
          "internalType": "address",
          "name": "approved",
          "type": "address"
        },
        {
          "indexed": true,
          "internalType": "uint256",
          "name": "tokenId",
          "type": "uint256"
        }
      ],
      "name": "Approval",
      "type": "event"
    },
    {
      "anonymous": false,
      "inputs": [
        {
          "indexed": true,
          "internalType": "address",
          "name": "owner",
          "type": "address"
        },
        {
          "indexed": true,
          "internalType": "address",
          "name": "operator",
          "type": "address"
        },
        {
          "indexed": false,
          "internalType": "bool",
          "name": "approved",
          "type": "bool"
        }
      ],
      "name": "ApprovalForAll",
      "type": "event"
    },
    {
      "anonymous": false,
      "inputs": [
        {
          "indexed": true,
          "internalType": "address",
          "name": "previousOwner",
          "type": "address"
        },
        {
          "indexed": true,
          "internalType": "address",
          "name": "newOwner",
          "type": "address"
        }
      ],
      "name": "OwnershipTransferred",
      "type": "event"
    },
    {
      "anonymous": false,
      "inputs": [
        {
          "indexed": true,
          "internalType": "address",
          "name": "from",
          "type": "address"
        },
        {
          "indexed": true,
          "internalType": "address",
          "name": "to",
          "type": "address"
        },
        {
          "indexed": true,
          "internalType": "uint256",
          "name": "tokenId",
          "type": "uint256"
        }
      ],
      "name": "Transfer",
      "type": "event"
    },
    {
      "inputs": [
        {
          "internalType": "address",
          "name": "to",
          "type": "address"
        },
        {
          "internalType": "uint256",
          "name": "tokenId",
          "type": "uint256"
        }
      ],
      "name": "approve",
      "outputs": [],
      "stateMutability": "nonpayable",
      "type": "function"
    },
    {
      "inputs": [
        {
          "internalType": "address",
          "name": "owner",
          "type": "address"
        }
      ],
      "name": "balanceOf",
      "outputs": [
        {
          "internalType": "uint256",
          "name": "",
          "type": "uint256"
        }
      ],
      "stateMutability": "view",
      "type": "function",
      "constant": true
    },
    {
      "inputs": [
        {
          "internalType": "uint256",
          "name": "tokenId",
          "type": "uint256"
        }
      ],
      "name": "getApproved",
      "outputs": [
        {
          "internalType": "address",
          "name": "",
          "type": "address"
        }
      ],
      "stateMutability": "view",
      "type": "function",
      "constant": true
    },
    {
      "inputs": [
        {
          "internalType": "address",
          "name": "owner",
          "type": "address"
        },
        {
          "internalType": "address",
          "name": "operator",
          "type": "address"
        }
      ],
      "name": "isApprovedForAll",
      "outputs": [
        {
          "internalType": "bool",
          "name": "",
          "type": "bool"
        }
      ],
      "stateMutability": "view",
      "type": "function",
      "constant": true
    },
    {
      "inputs": [],
      "name": "name",
      "outputs": [
        {
          "internalType": "string",
          "name": "",
          "type": "string"
        }
      ],
      "stateMutability": "view",
      "type": "function",
      "constant": true
    },
    {
      "inputs": [],
      "name": "owner",
      "outputs": [
        {
          "internalType": "address",
          "name": "",
          "type": "address"
        }
      ],
      "stateMutability": "view",
      "type": "function",
      "constant": true
    },
    {
      "inputs": [
        {
          "internalType": "uint256",
          "name": "tokenId",
          "type": "uint256"
        }
      ],
      "name": "ownerOf",
      "outputs": [
        {
          "internalType": "address",
          "name": "",
          "type": "address"
        }
      ],
      "stateMutability": "view",
      "type": "function",
      "constant": true
    },
    {
      "inputs": [],
      "name": "renounceOwnership",
      "outputs": [],
      "stateMutability": "nonpayable",
      "type": "function"
    },
    {
      "inputs": [
        {
          "internalType": "address",
          "name": "from",
          "type": "address"
        },
        {
          "internalType": "address",
          "name": "to",
          "type": "address"
        },
        {
          "internalType": "uint256",
          "name": "tokenId",
          "type": "uint256"
        }
      ],
      "name": "safeTransferFrom",
      "outputs": [],
      "stateMutability": "nonpayable",
      "type": "function"
    },
    {
      "inputs": [
        {
          "internalType": "address",
          "name": "from",
          "type": "address"
        },
        {
          "internalType": "address",
          "name": "to",
          "type": "address"
        },
        {
          "internalType": "uint256",
          "name": "tokenId",
          "type": "uint256"
        },
        {
          "internalType": "bytes",
          "name": "_data",
          "type": "bytes"
        }
      ],
      "name": "safeTransferFrom",
      "outputs": [],
      "stateMutability": "nonpayable",
      "type": "function"
    },
    {
      "inputs": [
        {
          "internalType": "address",
          "name": "operator",
          "type": "address"
        },
        {
          "internalType": "bool",
          "name": "approved",
          "type": "bool"
        }
      ],
      "name": "setApprovalForAll",
      "outputs": [],
      "stateMutability": "nonpayable",
      "type": "function"
    },
    {
      "inputs": [
        {
          "internalType": "bytes4",
          "name": "interfaceId",
          "type": "bytes4"
        }
      ],
      "name": "supportsInterface",
      "outputs": [
        {
          "internalType": "bool",
          "name": "",
          "type": "bool"
        }
      ],
      "stateMutability": "view",
      "type": "function",
      "constant": true
    },
    {
      "inputs": [],
      "name": "symbol",
      "outputs": [
        {
          "internalType": "string",
          "name": "",
          "type": "string"
        }
      ],
      "stateMutability": "view",
      "type": "function",
      "constant": true
    },
    {
      "inputs": [
        {
          "internalType": "address",
          "name": "from",
          "type": "address"
        },
        {
          "internalType": "address",
          "name": "to",
          "type": "address"
        },
        {
          "internalType": "uint256",
          "name": "tokenId",
          "type": "uint256"
        }
      ],
      "name": "transferFrom",
      "outputs": [],
      "stateMutability": "nonpayable",
      "type": "function"
    },
    {
      "inputs": [
        {
          "internalType": "address",
          "name": "newOwner",
          "type": "address"
        }
      ],
      "name": "transferOwnership",
      "outputs": [],
      "stateMutability": "nonpayable",
      "type": "function"
    },
    {
      "inputs": [
        {
          "internalType": "address",
          "name": "to",
          "type": "address"
        },
        {
          "internalType": "string",
          "name": "uri",
          "type": "string"
        }
      ],
      "name": "safeMint",
      "outputs": [],
      "stateMutability": "nonpayable",
      "type": "function"
    },
    {
      "inputs": [
        {
          "internalType": "uint256",
          "name": "tokenId",
          "type": "uint256"
        }
      ],
      "name": "tokenURI",
      "outputs": [
        {
          "internalType": "string",
          "name": "",
          "type": "string"
        }
      ],
      "stateMutability": "view",
      "type": "function",
      "constant": true
    },
    {
      "inputs": [
        {
          "internalType": "string",
          "name": "uri",
          "type": "string"
        }
      ],
      "name": "isContentOwned",
      "outputs": [
        {
          "internalType": "bool",
          "name": "",
          "type": "bool"
        }
      ],
      "stateMutability": "view",
      "type": "function",
      "constant": true
    },
    {
      "inputs": [
        {
          "internalType": "address",
          "name": "mee",
          "type": "address"
        },
        {
          "internalType": "string",
          "name": "metadataURI",
          "type": "string"
        }
      ],
      "name": "payToMint",
      "outputs": [
        {
          "internalType": "uint256",
          "name": "",
          "type": "uint256"
        }
      ],
      "stateMutability": "payable",
      "type": "function",
      "payable": true
    },
    {
      "inputs": [],
      "name": "count",
      "outputs": [
        {
          "internalType": "uint256",
          "name": "",
          "type": "uint256"
        }
      ],
      "stateMutability": "view",
      "type": "function",
      "constant": true
    }
  ],
  "bytecode": "0x60806040523480156200001157600080fd5b506040518060400160405280600581526020017f50616e64610000000000000000000000000000000000000000000000000000008152506040518060400160405280600481526020017f504e444100000000000000000000000000000000000000000000000000000000815250816000908051906020019062000096929190620001a6565b508060019080519060200190620000af929190620001a6565b505050620000d2620000c6620000d860201b60201c565b620000e060201b60201c565b620002bb565b600033905090565b6000600760009054906101000a900473ffffffffffffffffffffffffffffffffffffffff16905081600760006101000a81548173ffffffffffffffffffffffffffffffffffffffff021916908373ffffffffffffffffffffffffffffffffffffffff1602179055508173ffffffffffffffffffffffffffffffffffffffff168173ffffffffffffffffffffffffffffffffffffffff167f8be0079c531659141344cd1fd0a4f28419497f9722a3daafe3b4186f6b6457e060405160405180910390a35050565b828054620001b49062000285565b90600052602060002090601f016020900481019282620001d8576000855562000224565b82601f10620001f357805160ff191683800117855562000224565b8280016001018555821562000224579182015b828111156200022357825182559160200191906001019062000206565b5b50905062000233919062000237565b5090565b5b808211156200025257600081600090555060010162000238565b5090565b7f4e487b7100000000000000000000000000000000000000000000000000000000600052602260045260246000fd5b600060028204905060018216806200029e57607f821691505b60208210811415620002b557620002b462000256565b5b50919050565b61369b80620002cb6000396000f3fe60806040526004361061011f5760003560e01c8063715018a6116100a0578063b88d4fde11610064578063b88d4fde146103ec578063c87b56dd14610415578063d204c45e14610452578063e985e9c51461047b578063f2fde38b146104b85761011f565b8063715018a6146103195780638da5cb5b1461033057806395d89b411461035b5780639f1cabc614610386578063a22cb465146103c35761011f565b806323b872dd116100e757806323b872dd1461021d57806342842e0e14610246578063615fd9e21461026f5780636352211e1461029f57806370a08231146102dc5761011f565b806301ffc9a71461012457806306661abd1461016157806306fdde031461018c578063081812fc146101b7578063095ea7b3146101f4575b600080fd5b34801561013057600080fd5b5061014b60048036038101906101469190612115565b6104e1565b604051610158919061215d565b60405180910390f35b34801561016d57600080fd5b506101766105c3565b6040516101839190612191565b60405180910390f35b34801561019857600080fd5b506101a16105d4565b6040516101ae9190612245565b60405180910390f35b3480156101c357600080fd5b506101de60048036038101906101d99190612293565b610666565b6040516101eb9190612301565b60405180910390f35b34801561020057600080fd5b5061021b60048036038101906102169190612348565b6106eb565b005b34801561022957600080fd5b50610244600480360381019061023f9190612388565b610803565b005b34801561025257600080fd5b5061026d60048036038101906102689190612388565b610863565b005b61028960048036038101906102849190612510565b610883565b6040516102969190612191565b60405180910390f35b3480156102ab57600080fd5b506102c660048036038101906102c19190612293565b610a71565b6040516102d39190612301565b60405180910390f35b3480156102e857600080fd5b5061030360048036038101906102fe919061256c565b610b23565b6040516103109190612191565b60405180910390f35b34801561032557600080fd5b5061032e610bdb565b005b34801561033c57600080fd5b50610345610c63565b6040516103529190612301565b60405180910390f35b34801561036757600080fd5b50610370610c8d565b60405161037d9190612245565b60405180910390f35b34801561039257600080fd5b506103ad60048036038101906103a89190612599565b610d1f565b6040516103ba919061215d565b60405180910390f35b3480156103cf57600080fd5b506103ea60048036038101906103e5919061260e565b610d5a565b005b3480156103f857600080fd5b50610413600480360381019061040e91906126ef565b610d70565b005b34801561042157600080fd5b5061043c60048036038101906104379190612293565b610dd2565b6040516104499190612245565b60405180910390f35b34801561045e57600080fd5b5061047960048036038101906104749190612510565b610de4565b005b34801561048757600080fd5b506104a2600480360381019061049d9190612772565b610ec9565b6040516104af919061215d565b60405180910390f35b3480156104c457600080fd5b506104df60048036038101906104da919061256c565b610f5d565b005b60007f80ac58cd000000000000000000000000000000000000000000000000000000007bffffffffffffffffffffffffffffffffffffffffffffffffffffffff1916827bffffffffffffffffffffffffffffffffffffffffffffffffffffffff191614806105ac57507f5b5e139f000000000000000000000000000000000000000000000000000000007bffffffffffffffffffffffffffffffffffffffffffffffffffffffff1916827bffffffffffffffffffffffffffffffffffffffffffffffffffffffff1916145b806105bc57506105bb82611055565b5b9050919050565b60006105cf60086110bf565b905090565b6060600080546105e3906127e1565b80601f016020809104026020016040519081016040528092919081815260200182805461060f906127e1565b801561065c5780601f106106315761010080835404028352916020019161065c565b820191906000526020600020905b81548152906001019060200180831161063f57829003601f168201915b5050505050905090565b6000610671826110cd565b6106b0576040517f08c379a00000000000000000000000000000000000000000000000000000000081526004016106a790612885565b60405180910390fd5b6004600083815260200190815260200160002060009054906101000a900473ffffffffffffffffffffffffffffffffffffffff169050919050565b60006106f682610a71565b90508073ffffffffffffffffffffffffffffffffffffffff168373ffffffffffffffffffffffffffffffffffffffff161415610767576040517f08c379a000000000000000000000000000000000000000000000000000000000815260040161075e90612917565b60405180910390fd5b8073ffffffffffffffffffffffffffffffffffffffff16610786611139565b73ffffffffffffffffffffffffffffffffffffffff1614806107b557506107b4816107af611139565b610ec9565b5b6107f4576040517f08c379a00000000000000000000000000000000000000000000000000000000081526004016107eb906129a9565b60405180910390fd5b6107fe8383611141565b505050565b61081461080e611139565b826111fa565b610853576040517f08c379a000000000000000000000000000000000000000000000000000000000815260040161084a90612a3b565b60405180910390fd5b61085e8383836112d8565b505050565b61087e83838360405180602001604052806000815250610d70565b505050565b60006001600a836040516108979190612a97565b908152602001604051809103902060009054906101000a900460ff1660ff1614156108f7576040517f08c379a00000000000000000000000000000000000000000000000000000000081526004016108ee90612afa565b60405180910390fd5b670de0b6b3a7640000341015610942576040517f08c379a000000000000000000000000000000000000000000000000000000000815260040161093990612b66565b60405180910390fd5b6000731fa3597fbc9248e24eb9e928234d7940e699031273ffffffffffffffffffffffffffffffffffffffff163460405161097c90612bb7565b60006040518083038185875af1925050503d80600081146109b9576040519150601f19603f3d011682016040523d82523d6000602084013e6109be565b606091505b5050905080610a02576040517f08c379a00000000000000000000000000000000000000000000000000000000081526004016109f990612c18565b60405180910390fd5b6000610a0e60086110bf565b9050610a1a600861153f565b6001600a85604051610a2c9190612a97565b908152602001604051809103902060006101000a81548160ff021916908360ff160217905550610a5c3382611555565b610a66818561172f565b809250505092915050565b6000806002600084815260200190815260200160002060009054906101000a900473ffffffffffffffffffffffffffffffffffffffff169050600073ffffffffffffffffffffffffffffffffffffffff168173ffffffffffffffffffffffffffffffffffffffff161415610b1a576040517f08c379a0000000000000000000000000000000000000000000000000000000008152600401610b1190612caa565b60405180910390fd5b80915050919050565b60008073ffffffffffffffffffffffffffffffffffffffff168273ffffffffffffffffffffffffffffffffffffffff161415610b94576040517f08c379a0000000000000000000000000000000000000000000000000000000008152600401610b8b90612d3c565b60405180910390fd5b600360008373ffffffffffffffffffffffffffffffffffffffff1673ffffffffffffffffffffffffffffffffffffffff168152602001908152602001600020549050919050565b610be3611139565b73ffffffffffffffffffffffffffffffffffffffff16610c01610c63565b73ffffffffffffffffffffffffffffffffffffffff1614610c57576040517f08c379a0000000000000000000000000000000000000000000000000000000008152600401610c4e90612da8565b60405180910390fd5b610c6160006117a3565b565b6000600760009054906101000a900473ffffffffffffffffffffffffffffffffffffffff16905090565b606060018054610c9c906127e1565b80601f0160208091040260200160405190810160405280929190818152602001828054610cc8906127e1565b8015610d155780601f10610cea57610100808354040283529160200191610d15565b820191906000526020600020905b815481529060010190602001808311610cf857829003601f168201915b5050505050905090565b60006001600a83604051610d339190612a97565b908152602001604051809103902060009054906101000a900460ff1660ff16149050919050565b610d6c610d65611139565b8383611869565b5050565b610d81610d7b611139565b836111fa565b610dc0576040517f08c379a0000000000000000000000000000000000000000000000000000000008152600401610db790612a3b565b60405180910390fd5b610dcc848484846119d6565b50505050565b6060610ddd82611a32565b9050919050565b610dec611139565b73ffffffffffffffffffffffffffffffffffffffff16610e0a610c63565b73ffffffffffffffffffffffffffffffffffffffff1614610e60576040517f08c379a0000000000000000000000000000000000000000000000000000000008152600401610e5790612da8565b60405180910390fd5b6000610e6c60086110bf565b9050610e78600861153f565b610e828382611b84565b610e8c818361172f565b6001600a83604051610e9e9190612a97565b908152602001604051809103902060006101000a81548160ff021916908360ff160217905550505050565b6000600560008473ffffffffffffffffffffffffffffffffffffffff1673ffffffffffffffffffffffffffffffffffffffff16815260200190815260200160002060008373ffffffffffffffffffffffffffffffffffffffff1673ffffffffffffffffffffffffffffffffffffffff16815260200190815260200160002060009054906101000a900460ff16905092915050565b610f65611139565b73ffffffffffffffffffffffffffffffffffffffff16610f83610c63565b73ffffffffffffffffffffffffffffffffffffffff1614610fd9576040517f08c379a0000000000000000000000000000000000000000000000000000000008152600401610fd090612da8565b60405180910390fd5b600073ffffffffffffffffffffffffffffffffffffffff168173ffffffffffffffffffffffffffffffffffffffff161415611049576040517f08c379a000000000000000000000000000000000000000000000000000000000815260040161104090612e3a565b60405180910390fd5b611052816117a3565b50565b60007f01ffc9a7000000000000000000000000000000000000000000000000000000007bffffffffffffffffffffffffffffffffffffffffffffffffffffffff1916827bffffffffffffffffffffffffffffffffffffffffffffffffffffffff1916149050919050565b600081600001549050919050565b60008073ffffffffffffffffffffffffffffffffffffffff166002600084815260200190815260200160002060009054906101000a900473ffffffffffffffffffffffffffffffffffffffff1673ffffffffffffffffffffffffffffffffffffffff1614159050919050565b600033905090565b816004600083815260200190815260200160002060006101000a81548173ffffffffffffffffffffffffffffffffffffffff021916908373ffffffffffffffffffffffffffffffffffffffff160217905550808273ffffffffffffffffffffffffffffffffffffffff166111b483610a71565b73ffffffffffffffffffffffffffffffffffffffff167f8c5be1e5ebec7d5bd14f71427d1e84f3dd0314c0f7b2291e5b200ac8c7c3b92560405160405180910390a45050565b6000611205826110cd565b611244576040517f08c379a000000000000000000000000000000000000000000000000000000000815260040161123b90612ecc565b60405180910390fd5b600061124f83610a71565b90508073ffffffffffffffffffffffffffffffffffffffff168473ffffffffffffffffffffffffffffffffffffffff1614806112be57508373ffffffffffffffffffffffffffffffffffffffff166112a684610666565b73ffffffffffffffffffffffffffffffffffffffff16145b806112cf57506112ce8185610ec9565b5b91505092915050565b8273ffffffffffffffffffffffffffffffffffffffff166112f882610a71565b73ffffffffffffffffffffffffffffffffffffffff161461134e576040517f08c379a000000000000000000000000000000000000000000000000000000000815260040161134590612f5e565b60405180910390fd5b600073ffffffffffffffffffffffffffffffffffffffff168273ffffffffffffffffffffffffffffffffffffffff1614156113be576040517f08c379a00000000000000000000000000000000000000000000000000000000081526004016113b590612ff0565b60405180910390fd5b6113c9838383611ba2565b6113d4600082611141565b6001600360008573ffffffffffffffffffffffffffffffffffffffff1673ffffffffffffffffffffffffffffffffffffffff1681526020019081526020016000206000828254611424919061303f565b925050819055506001600360008473ffffffffffffffffffffffffffffffffffffffff1673ffffffffffffffffffffffffffffffffffffffff168152602001908152602001600020600082825461147b9190613073565b92505081905550816002600083815260200190815260200160002060006101000a81548173ffffffffffffffffffffffffffffffffffffffff021916908373ffffffffffffffffffffffffffffffffffffffff160217905550808273ffffffffffffffffffffffffffffffffffffffff168473ffffffffffffffffffffffffffffffffffffffff167fddf252ad1be2c89b69c2b068fc378daa952ba7f163c4a11628f55a4df523b3ef60405160405180910390a461153a838383611ba7565b505050565b6001816000016000828254019250508190555050565b600073ffffffffffffffffffffffffffffffffffffffff168273ffffffffffffffffffffffffffffffffffffffff1614156115c5576040517f08c379a00000000000000000000000000000000000000000000000000000000081526004016115bc90613115565b60405180910390fd5b6115ce816110cd565b1561160e576040517f08c379a000000000000000000000000000000000000000000000000000000000815260040161160590613181565b60405180910390fd5b61161a60008383611ba2565b6001600360008473ffffffffffffffffffffffffffffffffffffffff1673ffffffffffffffffffffffffffffffffffffffff168152602001908152602001600020600082825461166a9190613073565b92505081905550816002600083815260200190815260200160002060006101000a81548173ffffffffffffffffffffffffffffffffffffffff021916908373ffffffffffffffffffffffffffffffffffffffff160217905550808273ffffffffffffffffffffffffffffffffffffffff16600073ffffffffffffffffffffffffffffffffffffffff167fddf252ad1be2c89b69c2b068fc378daa952ba7f163c4a11628f55a4df523b3ef60405160405180910390a461172b60008383611ba7565b5050565b611738826110cd565b611777576040517f08c379a000000000000000000000000000000000000000000000000000000000815260040161176e90613213565b60405180910390fd5b8060066000848152602001908152602001600020908051906020019061179e929190612006565b505050565b6000600760009054906101000a900473ffffffffffffffffffffffffffffffffffffffff16905081600760006101000a81548173ffffffffffffffffffffffffffffffffffffffff021916908373ffffffffffffffffffffffffffffffffffffffff1602179055508173ffffffffffffffffffffffffffffffffffffffff168173ffffffffffffffffffffffffffffffffffffffff167f8be0079c531659141344cd1fd0a4f28419497f9722a3daafe3b4186f6b6457e060405160405180910390a35050565b8173ffffffffffffffffffffffffffffffffffffffff168373ffffffffffffffffffffffffffffffffffffffff1614156118d8576040517f08c379a00000000000000000000000000000000000000000000000000000000081526004016118cf9061327f565b60405180910390fd5b80600560008573ffffffffffffffffffffffffffffffffffffffff1673ffffffffffffffffffffffffffffffffffffffff16815260200190815260200160002060008473ffffffffffffffffffffffffffffffffffffffff1673ffffffffffffffffffffffffffffffffffffffff16815260200190815260200160002060006101000a81548160ff0219169083151502179055508173ffffffffffffffffffffffffffffffffffffffff168373ffffffffffffffffffffffffffffffffffffffff167f17307eab39ab6107e8899845ad3d59bd9653f200f220920489ca2b5937696c31836040516119c9919061215d565b60405180910390a3505050565b6119e18484846112d8565b6119ed84848484611bac565b611a2c576040517f08c379a0000000000000000000000000000000000000000000000000000000008152600401611a2390613311565b60405180910390fd5b50505050565b6060611a3d826110cd565b611a7c576040517f08c379a0000000000000000000000000000000000000000000000000000000008152600401611a73906133a3565b60405180910390fd5b6000600660008481526020019081526020016000208054611a9c906127e1565b80601f0160208091040260200160405190810160405280929190818152602001828054611ac8906127e1565b8015611b155780601f10611aea57610100808354040283529160200191611b15565b820191906000526020600020905b815481529060010190602001808311611af857829003601f168201915b505050505090506000611b26611d43565b9050600081511415611b3c578192505050611b7f565b600082511115611b71578082604051602001611b599291906133c3565b60405160208183030381529060405292505050611b7f565b611b7a84611d80565b925050505b919050565b611b9e828260405180602001604052806000815250611e27565b5050565b505050565b505050565b6000611bcd8473ffffffffffffffffffffffffffffffffffffffff16611e82565b15611d36578373ffffffffffffffffffffffffffffffffffffffff1663150b7a02611bf6611139565b8786866040518563ffffffff1660e01b8152600401611c18949392919061343c565b602060405180830381600087803b158015611c3257600080fd5b505af1925050508015611c6357506040513d601f19601f82011682018060405250810190611c60919061349d565b60015b611ce6573d8060008114611c93576040519150601f19603f3d011682016040523d82523d6000602084013e611c98565b606091505b50600081511415611cde576040517f08c379a0000000000000000000000000000000000000000000000000000000008152600401611cd590613311565b60405180910390fd5b805181602001fd5b63150b7a0260e01b7bffffffffffffffffffffffffffffffffffffffffffffffffffffffff1916817bffffffffffffffffffffffffffffffffffffffffffffffffffffffff191614915050611d3b565b600190505b949350505050565b60606040518060400160405280600781526020017f697066733a2f2f00000000000000000000000000000000000000000000000000815250905090565b6060611d8b826110cd565b611dca576040517f08c379a0000000000000000000000000000000000000000000000000000000008152600401611dc19061353c565b60405180910390fd5b6000611dd4611d43565b90506000815111611df45760405180602001604052806000815250611e1f565b80611dfe84611ea5565b604051602001611e0f9291906133c3565b6040516020818303038152906040525b915050919050565b611e318383611555565b611e3e6000848484611bac565b611e7d576040517f08c379a0000000000000000000000000000000000000000000000000000000008152600401611e7490613311565b60405180910390fd5b505050565b6000808273ffffffffffffffffffffffffffffffffffffffff163b119050919050565b60606000821415611eed576040518060400160405280600181526020017f30000000000000000000000000000000000000000000000000000000000000008152509050612001565b600082905060005b60008214611f1f578080611f089061355c565b915050600a82611f1891906135d4565b9150611ef5565b60008167ffffffffffffffff811115611f3b57611f3a6123e5565b5b6040519080825280601f01601f191660200182016040528015611f6d5781602001600182028036833780820191505090505b5090505b60008514611ffa57600182611f86919061303f565b9150600a85611f959190613605565b6030611fa19190613073565b60f81b818381518110611fb757611fb6613636565b5b60200101907effffffffffffffffffffffffffffffffffffffffffffffffffffffffffffff1916908160001a905350600a85611ff391906135d4565b9450611f71565b8093505050505b919050565b828054612012906127e1565b90600052602060002090601f016020900481019282612034576000855561207b565b82601f1061204d57805160ff191683800117855561207b565b8280016001018555821561207b579182015b8281111561207a57825182559160200191906001019061205f565b5b509050612088919061208c565b5090565b5b808211156120a557600081600090555060010161208d565b5090565b6000604051905090565b600080fd5b600080fd5b60007fffffffff0000000000000000000000000000000000000000000000000000000082169050919050565b6120f2816120bd565b81146120fd57600080fd5b50565b60008135905061210f816120e9565b92915050565b60006020828403121561212b5761212a6120b3565b5b600061213984828501612100565b91505092915050565b60008115159050919050565b61215781612142565b82525050565b6000602082019050612172600083018461214e565b92915050565b6000819050919050565b61218b81612178565b82525050565b60006020820190506121a66000830184612182565b92915050565b600081519050919050565b600082825260208201905092915050565b60005b838110156121e65780820151818401526020810190506121cb565b838111156121f5576000848401525b50505050565b6000601f19601f8301169050919050565b6000612217826121ac565b61222181856121b7565b93506122318185602086016121c8565b61223a816121fb565b840191505092915050565b6000602082019050818103600083015261225f818461220c565b905092915050565b61227081612178565b811461227b57600080fd5b50565b60008135905061228d81612267565b92915050565b6000602082840312156122a9576122a86120b3565b5b60006122b78482850161227e565b91505092915050565b600073ffffffffffffffffffffffffffffffffffffffff82169050919050565b60006122eb826122c0565b9050919050565b6122fb816122e0565b82525050565b600060208201905061231660008301846122f2565b92915050565b612325816122e0565b811461233057600080fd5b50565b6000813590506123428161231c565b92915050565b6000806040838503121561235f5761235e6120b3565b5b600061236d85828601612333565b925050602061237e8582860161227e565b9150509250929050565b6000806000606084860312156123a1576123a06120b3565b5b60006123af86828701612333565b93505060206123c086828701612333565b92505060406123d18682870161227e565b9150509250925092565b600080fd5b600080fd5b7f4e487b7100000000000000000000000000000000000000000000000000000000600052604160045260246000fd5b61241d826121fb565b810181811067ffffffffffffffff8211171561243c5761243b6123e5565b5b80604052505050565b600061244f6120a9565b905061245b8282612414565b919050565b600067ffffffffffffffff82111561247b5761247a6123e5565b5b612484826121fb565b9050602081019050919050565b82818337600083830152505050565b60006124b36124ae84612460565b612445565b9050828152602081018484840111156124cf576124ce6123e0565b5b6124da848285612491565b509392505050565b600082601f8301126124f7576124f66123db565b5b81356125078482602086016124a0565b91505092915050565b60008060408385031215612527576125266120b3565b5b600061253585828601612333565b925050602083013567ffffffffffffffff811115612556576125556120b8565b5b612562858286016124e2565b9150509250929050565b600060208284031215612582576125816120b3565b5b600061259084828501612333565b91505092915050565b6000602082840312156125af576125ae6120b3565b5b600082013567ffffffffffffffff8111156125cd576125cc6120b8565b5b6125d9848285016124e2565b91505092915050565b6125eb81612142565b81146125f657600080fd5b50565b600081359050612608816125e2565b92915050565b60008060408385031215612625576126246120b3565b5b600061263385828601612333565b9250506020612644858286016125f9565b9150509250929050565b600067ffffffffffffffff821115612669576126686123e5565b5b612672826121fb565b9050602081019050919050565b600061269261268d8461264e565b612445565b9050828152602081018484840111156126ae576126ad6123e0565b5b6126b9848285612491565b509392505050565b600082601f8301126126d6576126d56123db565b5b81356126e684826020860161267f565b91505092915050565b60008060008060808587031215612709576127086120b3565b5b600061271787828801612333565b945050602061272887828801612333565b93505060406127398782880161227e565b925050606085013567ffffffffffffffff81111561275a576127596120b8565b5b612766878288016126c1565b91505092959194509250565b60008060408385031215612789576127886120b3565b5b600061279785828601612333565b92505060206127a885828601612333565b9150509250929050565b7f4e487b7100000000000000000000000000000000000000000000000000000000600052602260045260246000fd5b600060028204905060018216806127f957607f821691505b6020821081141561280d5761280c6127b2565b5b50919050565b7f4552433732313a20617070726f76656420717565727920666f72206e6f6e657860008201527f697374656e7420746f6b656e0000000000000000000000000000000000000000602082015250565b600061286f602c836121b7565b915061287a82612813565b604082019050919050565b6000602082019050818103600083015261289e81612862565b9050919050565b7f4552433732313a20617070726f76616c20746f2063757272656e74206f776e6560008201527f7200000000000000000000000000000000000000000000000000000000000000602082015250565b60006129016021836121b7565b915061290c826128a5565b604082019050919050565b60006020820190508181036000830152612930816128f4565b9050919050565b7f4552433732313a20617070726f76652063616c6c6572206973206e6f74206f7760008201527f6e6572206e6f7220617070726f76656420666f7220616c6c0000000000000000602082015250565b60006129936038836121b7565b915061299e82612937565b604082019050919050565b600060208201905081810360008301526129c281612986565b9050919050565b7f4552433732313a207472616e736665722063616c6c6572206973206e6f74206f60008201527f776e6572206e6f7220617070726f766564000000000000000000000000000000602082015250565b6000612a256031836121b7565b9150612a30826129c9565b604082019050919050565b60006020820190508181036000830152612a5481612a18565b9050919050565b600081905092915050565b6000612a71826121ac565b612a7b8185612a5b565b9350612a8b8185602086016121c8565b80840191505092915050565b6000612aa38284612a66565b915081905092915050565b7f4e465420616c7265616479206d696e7465642100000000000000000000000000600082015250565b6000612ae46013836121b7565b9150612aef82612aae565b602082019050919050565b60006020820190508181036000830152612b1381612ad7565b9050919050565b7f4e65656420746f20706179207570210000000000000000000000000000000000600082015250565b6000612b50600f836121b7565b9150612b5b82612b1a565b602082019050919050565b60006020820190508181036000830152612b7f81612b43565b9050919050565b600081905092915050565b50565b6000612ba1600083612b86565b9150612bac82612b91565b600082019050919050565b6000612bc282612b94565b9150819050919050565b7f5472616e73666572206661696c65642e00000000000000000000000000000000600082015250565b6000612c026010836121b7565b9150612c0d82612bcc565b602082019050919050565b60006020820190508181036000830152612c3181612bf5565b9050919050565b7f4552433732313a206f776e657220717565727920666f72206e6f6e657869737460008201527f656e7420746f6b656e0000000000000000000000000000000000000000000000602082015250565b6000612c946029836121b7565b9150612c9f82612c38565b604082019050919050565b60006020820190508181036000830152612cc381612c87565b9050919050565b7f4552433732313a2062616c616e636520717565727920666f7220746865207a6560008201527f726f206164647265737300000000000000000000000000000000000000000000602082015250565b6000612d26602a836121b7565b9150612d3182612cca565b604082019050919050565b60006020820190508181036000830152612d5581612d19565b9050919050565b7f4f776e61626c653a2063616c6c6572206973206e6f7420746865206f776e6572600082015250565b6000612d926020836121b7565b9150612d9d82612d5c565b602082019050919050565b60006020820190508181036000830152612dc181612d85565b9050919050565b7f4f776e61626c653a206e6577206f776e657220697320746865207a65726f206160008201527f6464726573730000000000000000000000000000000000000000000000000000602082015250565b6000612e246026836121b7565b9150612e2f82612dc8565b604082019050919050565b60006020820190508181036000830152612e5381612e17565b9050919050565b7f4552433732313a206f70657261746f7220717565727920666f72206e6f6e657860008201527f697374656e7420746f6b656e0000000000000000000000000000000000000000602082015250565b6000612eb6602c836121b7565b9150612ec182612e5a565b604082019050919050565b60006020820190508181036000830152612ee581612ea9565b9050919050565b7f4552433732313a207472616e736665722066726f6d20696e636f72726563742060008201527f6f776e6572000000000000000000000000000000000000000000000000000000602082015250565b6000612f486025836121b7565b9150612f5382612eec565b604082019050919050565b60006020820190508181036000830152612f7781612f3b565b9050919050565b7f4552433732313a207472616e7366657220746f20746865207a65726f2061646460008201527f7265737300000000000000000000000000000000000000000000000000000000602082015250565b6000612fda6024836121b7565b9150612fe582612f7e565b604082019050919050565b6000602082019050818103600083015261300981612fcd565b9050919050565b7f4e487b7100000000000000000000000000000000000000000000000000000000600052601160045260246000fd5b600061304a82612178565b915061305583612178565b92508282101561306857613067613010565b5b828203905092915050565b600061307e82612178565b915061308983612178565b9250827fffffffffffffffffffffffffffffffffffffffffffffffffffffffffffffffff038211156130be576130bd613010565b5b828201905092915050565b7f4552433732313a206d696e7420746f20746865207a65726f2061646472657373600082015250565b60006130ff6020836121b7565b915061310a826130c9565b602082019050919050565b6000602082019050818103600083015261312e816130f2565b9050919050565b7f4552433732313a20746f6b656e20616c7265616479206d696e74656400000000600082015250565b600061316b601c836121b7565b915061317682613135565b602082019050919050565b6000602082019050818103600083015261319a8161315e565b9050919050565b7f45524337323155524953746f726167653a2055524920736574206f66206e6f6e60008201527f6578697374656e7420746f6b656e000000000000000000000000000000000000602082015250565b60006131fd602e836121b7565b9150613208826131a1565b604082019050919050565b6000602082019050818103600083015261322c816131f0565b9050919050565b7f4552433732313a20617070726f766520746f2063616c6c657200000000000000600082015250565b60006132696019836121b7565b915061327482613233565b602082019050919050565b600060208201905081810360008301526132988161325c565b9050919050565b7f4552433732313a207472616e7366657220746f206e6f6e20455243373231526560008201527f63656976657220696d706c656d656e7465720000000000000000000000000000602082015250565b60006132fb6032836121b7565b91506133068261329f565b604082019050919050565b6000602082019050818103600083015261332a816132ee565b9050919050565b7f45524337323155524953746f726167653a2055524920717565727920666f722060008201527f6e6f6e6578697374656e7420746f6b656e000000000000000000000000000000602082015250565b600061338d6031836121b7565b915061339882613331565b604082019050919050565b600060208201905081810360008301526133bc81613380565b9050919050565b60006133cf8285612a66565b91506133db8284612a66565b91508190509392505050565b600081519050919050565b600082825260208201905092915050565b600061340e826133e7565b61341881856133f2565b93506134288185602086016121c8565b613431816121fb565b840191505092915050565b600060808201905061345160008301876122f2565b61345e60208301866122f2565b61346b6040830185612182565b818103606083015261347d8184613403565b905095945050505050565b600081519050613497816120e9565b92915050565b6000602082840312156134b3576134b26120b3565b5b60006134c184828501613488565b91505092915050565b7f4552433732314d657461646174613a2055524920717565727920666f72206e6f60008201527f6e6578697374656e7420746f6b656e0000000000000000000000000000000000602082015250565b6000613526602f836121b7565b9150613531826134ca565b604082019050919050565b6000602082019050818103600083015261355581613519565b9050919050565b600061356782612178565b91507fffffffffffffffffffffffffffffffffffffffffffffffffffffffffffffffff82141561359a57613599613010565b5b600182019050919050565b7f4e487b7100000000000000000000000000000000000000000000000000000000600052601260045260246000fd5b60006135df82612178565b91506135ea83612178565b9250826135fa576135f96135a5565b5b828204905092915050565b600061361082612178565b915061361b83612178565b92508261362b5761362a6135a5565b5b828206905092915050565b7f4e487b7100000000000000000000000000000000000000000000000000000000600052603260045260246000fdfea2646970667358221220a2528fa20fab3fa997d6f855d93446f313a048dd231361d2e6406d22fd04d37864736f6c63430008090033",
  "immutableReferences": {},
  "source": "// SPDX-License-Identifier: MIT\npragma solidity ^0.8.2;\n\nimport \"@openzeppelin/contracts/token/ERC721/ERC721.sol\";\nimport \"@openzeppelin/contracts/token/ERC721/extensions/ERC721URIStorage.sol\";\nimport \"@openzeppelin/contracts/access/Ownable.sol\";\nimport \"@openzeppelin/contracts/utils/Counters.sol\";\n\ncontract Panda is ERC721, ERC721URIStorage, Ownable {\n    using Counters for Counters.Counter;\n    Counters.Counter private _tokenIdCounter;\n    address payable me;\n\n    mapping(string => uint8) existingURIs;\n\n    constructor() ERC721(\"Panda\", \"PNDA\") {\n    }\n\n    function _baseURI() internal pure override returns (string memory) {\n        return \"ipfs://\";\n    }\n\n    function safeMint(address to, string memory uri) public onlyOwner {\n        uint256 tokenId = _tokenIdCounter.current();\n        _tokenIdCounter.increment();\n        _safeMint(to, tokenId);\n        _setTokenURI(tokenId, uri);\n        existingURIs[uri] = 1;\n    }\n\n    // The following functions are overrides required by Solidity.\n\n    function _burn(uint256 tokenId)\n        internal\n        override(ERC721, ERC721URIStorage)\n    {\n        super._burn(tokenId);\n    }\n\n    function tokenURI(uint256 tokenId)\n        public\n        view\n        override(ERC721, ERC721URIStorage)\n        returns (string memory)\n    {\n        return super.tokenURI(tokenId);\n    }\n\n    function isContentOwned(string memory uri) public view returns (bool) {\n        return existingURIs[uri] == 1;\n    }\n\n    function payToMint(address mee, string memory metadataURI)\n        public\n        payable\n        returns (uint256)\n    {\n        require(existingURIs[metadataURI] != 1, \"NFT already minted!\");\n        require(msg.value >= 1 ether, \"Need to pay up!\");\n        (bool success, ) = payable(0x1fA3597fBc9248E24eB9e928234D7940E6990312).call{value: msg.value}(\"\");\n        require(success, \"Transfer failed.\");\n\n        uint256 newItemId = _tokenIdCounter.current();\n        _tokenIdCounter.increment();\n        existingURIs[metadataURI] = 1;\n\n        _mint(msg.sender, newItemId);\n        _setTokenURI(newItemId, metadataURI);\n        return newItemId;\n    }\n\n    function count() public view returns (uint256) {\n        return _tokenIdCounter.current();\n    }\n}\n",
  "sourcePath": "/Users/sakshamgupta/Desktop/nfprestart/contracts/NFT.sol",
  "compiler": {
    "name": "solc",
    "version": "0.8.9+commit.e5eed63a.Emscripten.clang"
  },
  "schemaVersion": "3.4.5",
  "updatedAt": "2022-02-22T19:29:45.768Z",
  "networkType": "ethereum",
  "devdoc": {
    "kind": "dev",
    "methods": {
      "approve(address,uint256)": {
        "details": "See {IERC721-approve}."
      },
      "balanceOf(address)": {
        "details": "See {IERC721-balanceOf}."
      },
      "getApproved(uint256)": {
        "details": "See {IERC721-getApproved}."
      },
      "isApprovedForAll(address,address)": {
        "details": "See {IERC721-isApprovedForAll}."
      },
      "name()": {
        "details": "See {IERC721Metadata-name}."
      },
      "owner()": {
        "details": "Returns the address of the current owner."
      },
      "ownerOf(uint256)": {
        "details": "See {IERC721-ownerOf}."
      },
      "renounceOwnership()": {
        "details": "Leaves the contract without owner. It will not be possible to call `onlyOwner` functions anymore. Can only be called by the current owner. NOTE: Renouncing ownership will leave the contract without an owner, thereby removing any functionality that is only available to the owner."
      },
      "safeTransferFrom(address,address,uint256)": {
        "details": "See {IERC721-safeTransferFrom}."
      },
      "safeTransferFrom(address,address,uint256,bytes)": {
        "details": "See {IERC721-safeTransferFrom}."
      },
      "setApprovalForAll(address,bool)": {
        "details": "See {IERC721-setApprovalForAll}."
      },
      "supportsInterface(bytes4)": {
        "details": "See {IERC165-supportsInterface}."
      },
      "symbol()": {
        "details": "See {IERC721Metadata-symbol}."
      },
      "transferFrom(address,address,uint256)": {
        "details": "See {IERC721-transferFrom}."
      },
      "transferOwnership(address)": {
        "details": "Transfers ownership of the contract to a new account (`newOwner`). Can only be called by the current owner."
      }
    },
    "version": 1
  },
  "userdoc": {
    "kind": "user",
    "methods": {},
    "version": 1
  }
}